{
  "transactions": [
    {
      "hash": "0xf9fd529f3fec90c8c991fab4527c008957864adaf08634c11dfdabe7792a64cf",
      "transactionType": "CALL",
      "contractName": "LinkToken",
      "contractAddress": "0x779877a7b0d9e8603169ddbd7836e478b4624789",
      "function": "transferAndCall(address,uint256,bytes)",
      "arguments": [
        "0x9DdfaCa8183c41ad55329BdeeD9F6A8d53168B1B",
        "3000000000000000000",
        "0x2cbc879a08e725ac539b64c03b909dcf42ed30c5920c9f059adf83a22fc8fb5a"
      ],
      "transaction": {
        "from": "0xedd41e6675c4312121f11ed4450ba944734cbcc2",
        "to": "0x779877a7b0d9e8603169ddbd7836e478b4624789",
        "gas": "0x14cbb",
        "value": "0x0",
        "input": "0x4000aea00000000000000000000000009ddfaca8183c41ad55329bdeed9f6a8d53168b1b00000000000000000000000000000000000000000000000029a2241af62c0000000000000000000000000000000000000000000000000000000000000000006000000000000000000000000000000000000000000000000000000000000000202cbc879a08e725ac539b64c03b909dcf42ed30c5920c9f059adf83a22fc8fb5a",
        "nonce": "0x9",
        "chainId": "0xaa36a7"
      },
      "additionalContracts": [],
      "isFixedGasLimit": false
    }
  ],
  "receipts": [
    {
      "status": "0x1",
      "cumulativeGasUsed": "0x73f151",
      "logs": [
        {
          "address": "0x779877a7b0d9e8603169ddbd7836e478b4624789",
          "topics": [
            "0xddf252ad1be2c89b69c2b068fc378daa952ba7f163c4a11628f55a4df523b3ef",
            "0x000000000000000000000000edd41e6675c4312121f11ed4450ba944734cbcc2",
            "0x0000000000000000000000009ddfaca8183c41ad55329bdeed9f6a8d53168b1b"
          ],
          "data": "0x00000000000000000000000000000000000000000000000029a2241af62c0000",
          "blockHash": "0x68d402c400dd6fa41d6873e4fb7647fa32144bfe33495ddc557ed72eacc36707",
          "blockNumber": "0x9483b3",
          "blockTimestamp": "0x692b362c",
          "transactionHash": "0xf9fd529f3fec90c8c991fab4527c008957864adaf08634c11dfdabe7792a64cf",
          "transactionIndex": "0x33",
          "logIndex": "0x75",
          "removed": false
        },
        {
          "address": "0x779877a7b0d9e8603169ddbd7836e478b4624789",
          "topics": [
            "0xe19260aff97b920c7df27010903aeb9c8d2be5d310a2c67824cf3f15396e4c16",
            "0x000000000000000000000000edd41e6675c4312121f11ed4450ba944734cbcc2",
            "0x0000000000000000000000009ddfaca8183c41ad55329bdeed9f6a8d53168b1b"
          ],
          "data": "0x00000000000000000000000000000000000000000000000029a2241af62c0000000000000000000000000000000000000000000000000000000000000000004000000000000000000000000000000000000000000000000000000000000000202cbc879a08e725ac539b64c03b909dcf42ed30c5920c9f059adf83a22fc8fb5a",
          "blockHash": "0x68d402c400dd6fa41d6873e4fb7647fa32144bfe33495ddc557ed72eacc36707",
          "blockNumber": "0x9483b3",
          "blockTimestamp": "0x692b362c",
          "transactionHash": "0xf9fd529f3fec90c8c991fab4527c008957864adaf08634c11dfdabe7792a64cf",
          "transactionIndex": "0x33",
          "logIndex": "0x76",
          "removed": false
        },
        {
          "address": "0x9ddfaca8183c41ad55329bdeed9f6a8d53168b1b",
          "topics": [
            "0x1ced9348ff549fceab2ac57cd3a9de38edaaab274b725ee82c23e8fc8c4eec7a",
            "0x2cbc879a08e725ac539b64c03b909dcf42ed30c5920c9f059adf83a22fc8fb5a"
          ],
          "data": "0x000000000000000000000000000000000000000000000000006a94d74f4300000000000000000000000000000000000000000000000000002a0cb8f2456f0000",
          "blockHash": "0x68d402c400dd6fa41d6873e4fb7647fa32144bfe33495ddc557ed72eacc36707",
          "blockNumber": "0x9483b3",
          "blockTimestamp": "0x692b362c",
          "transactionHash": "0xf9fd529f3fec90c8c991fab4527c008957864adaf08634c11dfdabe7792a64cf",
          "transactionIndex": "0x33",
          "logIndex": "0x77",
          "removed": false
        }
      ],
      "logsBloom": "0x00000004000080000000000000000000000000000020000000000000020000000000000000000000000000000000000000000000000000000000000000000000000000000000000000080008000000000000000000000000000020000220000008000000000000000000000000000000000000000000000000000010000040000000000000000000000000010000800000000020000000000000040000000000000000000000000000000000010200000000000000000000000004000000000000000002000000000000000000000000000000000001000100000000000000000010000000000000800000000000000000000000000000000000000000000000",
      "type": "0x2",
      "transactionHash": "0xf9fd529f3fec90c8c991fab4527c008957864adaf08634c11dfdabe7792a64cf",
      "transactionIndex": "0x33",
      "blockHash": "0x68d402c400dd6fa41d6873e4fb7647fa32144bfe33495ddc557ed72eacc36707",
      "blockNumber": "0x9483b3",
      "gasUsed": "0xf0e5",
      "effectiveGasPrice": "0xf424a",
      "from": "0xedd41e6675c4312121f11ed4450ba944734cbcc2",
      "to": "0x779877a7b0d9e8603169ddbd7836e478b4624789",
      "contractAddress": null
    }
  ],
  "libraries": [],
  "pending": [],
  "returns": {},
  "timestamp": 1764439598002,
  "chain": 11155111,
  "commit": "f6cd6eb"
}